:020000040000fa
:080000000002040000000000f2
:020000040000fa
:040008001e030000d3
:020000040000fa
:04000c005803000095
:020000040000fa
:040010009003000059
:020000040000fa
:040014003a030000ab
:020000040000fa
:04001800740300006d
:020000040000fa
:04001c00a804000034
:020000040000fa
:04002000ac0300002d
:020000040000fa
:04002400a80400002c
:020000040000fa
:04002800a804000028
:020000040000fa
:04002c00a804000024
:020000040000fa
:04003000a804000020
:020000040000fa
:04003400a80400001c
:020000040000fa
:04003800a804000018
:020000040000fa
:04003c00a804000014
:020000040000fa
:04004000a804000010
:020000040000fa
:04004400a80400000c
:020000040000fa
:04004800a804000008
:020000040000fa
:04004c00a804000004
:020000040000fa
:04005000a804000000
:020000040000fa
:04005400a8040000fc
:020000040000fa
:04005800a8040000f8
:020000040000fa
:04005c00a8040000f4
:020000040000fa
:04006000a8040000f0
:020000040000fa
:04006400a8040000ec
:020000040000fa
:04006800a8040000e8
:020000040000fa
:04006c00a8040000e4
:020000040000fa
:04007000a8040000e0
:020000040000fa
:04007400a8040000dc
:020000040000fa
:04007800a8040000d8
:020000040000fa
:04007c00a8040000d4
:020000040000fa
:04008000a8040000d0
:020000040000fa
:04008400a8040000cc
:020000040000fa
:04008800a8040000c8
:020000040000fa
:04008c00a8040000c4
:020000040000fa
:04009000a8040000c0
:020000040000fa
:04009400a8040000bc
:020000040000fa
:04009800a8040000b8
:020000040000fa
:04009c00a8040000b4
:020000040000fa
:0400a000a8040000b0
:020000040000fa
:0400a400a8040000ac
:020000040000fa
:0400a800a8040000a8
:020000040000fa
:0400ac00a8040000a4
:020000040000fa
:0400b000a8040000a0
:020000040000fa
:0400b400a80400009c
:020000040000fa
:0400b800a804000098
:020000040000fa
:0400bc00a804000094
:020000040000fa
:0400c000a804000090
:020000040000fa
:0400c400a80400008c
:020000040000fa
:0400c800a804000088
:020000040000fa
:0400cc00a804000084
:020000040000fa
:0400d000a804000080
:020000040000fa
:0400d400a80400007c
:020000040000fa
:0400d800a804000078
:020000040000fa
:0400dc00a804000074
:020000040000fa
:0400e000a804000070
:020000040000fa
:0400e400a80400006c
:020000040000fa
:0400e800a804000068
:020000040000fa
:0400ec00a804000064
:020000040000fa
:0400f000a804000060
:020000040000fa
:0400f400a80400005c
:020000040000fa
:0400f800a804000058
:020000040000fa
:0400fc00a804000054
:020000040000fa
:04010000a80400004f
:020000040000fa
:04010400a80400004b
:020000040000fa
:04010800a804000047
:020000040000fa
:04010c00a804000043
:020000040000fa
:04011000a80400003f
:020000040000fa
:04011400a80400003b
:020000040000fa
:04011800a804000037
:020000040000fa
:04011c00a804000033
:020000040000fa
:04012000a80400002f
:020000040000fa
:04012400a80400002b
:020000040000fa
:04012800a804000027
:020000040000fa
:04012c00a804000023
:020000040000fa
:04013000a80400001f
:020000040000fa
:04013400a80400001b
:020000040000fa
:04013800a804000017
:020000040000fa
:04013c00a804000013
:020000040000fa
:04014000a80400000f
:020000040000fa
:04014400a80400000b
:020000040000fa
:04014800a804000007
:020000040000fa
:04014c00a804000003
:020000040000fa
:04015000a8040000ff
:020000040000fa
:04015400a8040000fb
:020000040000fa
:04015800a8040000f7
:020000040000fa
:04015c00a8040000f3
:020000040000fa
:04016000a8040000ef
:020000040000fa
:04016400a8040000eb
:020000040000fa
:04016800a8040000e7
:020000040000fa
:04016c00a8040000e3
:020000040000fa
:04017000a8040000df
:020000040000fa
:04017400a8040000db
:020000040000fa
:04017800a8040000d7
:020000040000fa
:04017c00a8040000d3
:020000040000fa
:04018000a8040000cf
:020000040000fa
:04018400a8040000cb
:020000040000fa
:04018800a8040000c7
:020000040000fa
:04018c00a8040000c3
:020000040000fa
:04019000a8040000bf
:020000040000fa
:04019400a8040000bb
:020000040000fa
:0401980076040000e9
:020000040000fa
:04019c00a8040000b3
:020000040000fa
:0401a000a8040000af
:020000040000fa
:0401a400a8040000ab
:020000040000fa
:0401a800a8040000a7
:020000040000fa
:0401ac00a8040000a3
:020000040000fa
:0401b000a80400009f
:020000040000fa
:0401b400a80400009b
:020000040000fa
:0401b800a804000097
:020000040000fa
:0401bc00a804000093
:020000040000fa
:0401c000e003000058
:020000040000fa
:0401c400a80400008b
:020000040000fa
:0401c800a804000087
:020000040000fa
:0401cc00a804000083
:020000040000fa
:0401d000a80400007f
:020000040000fa
:0401d400a80400007b
:020000040000fa
:0401d800a804000077
:020000040000fa
:0401dc00a804000073
:020000040000fa
:0401e0001204000005
:020000040000fa
:0401e40044040000cf
:020000040000fa
:0401e800a804000067
:020000040000fa
:0401ec00a804000063
:020000040000fa
:0401f000a80400005f
:020000040000fa
:0401f400a80400005b
:020000040000fa
:0401f800a804000057
:020000040000fa
:0401fc00a804000053
:020000040000fa
:04020000a80400004e
:020000040000fa
:04020400a80400004a
:020000040000fa
:04020800a804000046
:020000040000fa
:04020c00a804000042
:020000040000fa
:04021000a80400003e
:020000040000fa
:04021400a80400003a
:020000040000fa
:04021800a804000036
:020000040000fa
:04021c00a804000032
:020000040000fa
:04022000a80400002e
:020000040000fa
:04022400a80400002a
:020000040000fa
:04022800a804000026
:020000040000fa
:04022c00a804000022
:020000040000fa
:04023000a80400001e
:020000040000fa
:04023400a80400001a
:020000040000fa
:04023800a804000016
:020000040000fa
:04023c00a804000012
:020000040000fa
:04024000a80400000e
:020000040000fa
:04024400a80400000a
:020000040000fa
:04024800a804000006
:020000040000fa
:04024c00a804000002
:020000040000fa
:04025000a8040000fe
:020000040000fa
:04025400a8040000fa
:020000040000fa
:04025800a8040000f6
:020000040000fa
:04025c00a8040000f2
:020000040000fa
:04026000a8040000ee
:020000040000fa
:04026400a8040000ea
:020000040000fa
:04026800a8040000e6
:020000040000fa
:04026c00a8040000e2
:020000040000fa
:04027000a8040000de
:020000040000fa
:04027400a8040000da
:020000040000fa
:04027800a8040000d6
:020000040000fa
:04027c00a8040000d2
:020000040000fa
:04028000a8040000ce
:020000040000fa
:04028400a8040000ca
:020000040000fa
:04028800a8040000c6
:020000040000fa
:04028c00a8040000c2
:020000040000fa
:04029000a8040000be
:020000040000fa
:04029400a8040000ba
:020000040000fa
:04029800a8040000b6
:020000040000fa
:04029c00a8040000b2
:020000040000fa
:0402a000a8040000ae
:020000040000fa
:0402a400a8040000aa
:020000040000fa
:0402a800a8040000a6
:020000040000fa
:0402ac00a8040000a2
:020000040000fa
:0402b000a80400009e
:020000040000fa
:0402b400a80400009a
:020000040000fa
:0402b800a804000096
:020000040000fa
:0402bc00a804000092
:020000040000fa
:0402c000a80400008e
:020000040000fa
:0402c400a80400008a
:020000040000fa
:0402c800a804000086
:020000040000fa
:0402cc00a804000082
:020000040000fa
:0402d000a80400007e
:020000040000fa
:0402d400a80400007a
:020000040000fa
:0402d800a804000076
:020000040000fa
:0402dc00a804000072
:020000040000fa
:0402e000a80400006e
:020000040000fa
:0402e400a80400006a
:020000040000fa
:0402e800a804000066
:020000040000fa
:0402ec00a804000062
:020000040000fa
:0402f000a80400005e
:020000040000fa
:0402f400a80400005a
:020000040000fa
:0402f800a804000056
:020000040000fa
:0402fc00a804000052
:020000040000fa
:04030000a80400004d
:020000040000fa
:04030400a804000049
:020000040000fa
:04030800a804000045
:020000040000fa
:04030c00a804000041
:020000040000fa
:04031000a80400003d
:020000040000fa
:04031400a804000039
:020000040000fa
:04031800a804000035
:020000040000fa
:04031c00a804000031
:020000040000fa
:04032000a80400002d
:020000040000fa
:04032400a804000029
:020000040000fa
:100400004f0122000eff22000e01880000000000b4
:10041000000020000000e000020032000001200087
:1004200020028800140007004b0107000000e000d4
:1004300003003a00003221000100200002003700d2
:100440000000200001002000810f70000100320038
:100450000f000700000020000000e0000200320052
:100460000000020000000000040e02000000000076
:100470000040da000000fe00200020000000e00044
:1004800002003200100020009001880000000600e9
:10049000a1028800800478000000eb001f003700f4
:1004a000e284440054a0b4009905ba00e2844400f8
:1004b00054a0b4009906ba00e284440054a0b400e9
:1004c0000006eb00476fde00fd07b200ae018800ba
:1004d000636ce10003003a000ad801000000eb0061
:1004e0000e003700606ce10008003a00004deb00a0
:1004f0000a05e800020039003420ec000af0a000f0
:100500008b05e900f9ff3e00040037006168e10057
:10051000010032000086eb000b00070019c7ba008b
:100520001905ba000e04e00003003a000a00e000da
:10053000dbff3a0000000600fe07b200ae028800b2
:100540008a047800f5ff37000cd0a300e20f4d00bd
:100550001c00390089027800354dba000a05e80010
:10056000020039003420ec000af0a0008b05e900fd
:100570000f003200254dba000a05e80002003900dc
:100580003420ec000af0a0008b05e90008003200de
:100590000c00e0000600320015cdba000a05e800a4
:1005a000020039003420ec000af0a0008b05e900bd
:1005b0008984e80054a0b4000b00e000e2ff3a0098
:1005c000000006009902ba00055d78008b05e9007d
:1005d000f7ff3200c82ade00055d78008b05e900d0
:1005e000f3ff32000c00e000f1ff320019ddba0029
:1005f000eeff3700000000000000000000000000d7
:1006000000000000000000000000000000000000ea
:1006100000000000000000000000000000000000da
:1006200000000000000000000000000000000000ca
:100630000000000000000000000000003600f8008c
:10064000809fbe00829fbe00849fbe00869fbe002a
:10065000c028a9000000eb00800807004f03be007f
:100660004f02be004f01be004f00be003600f90031
:10067000004006003600f800809fbe00829fbe004a
:10068000849fbe00869fbe006f080700c048a90077
:1006900010002000710807004f03be004f02be008b
:1006a0004f01be004f00be003600f90000400600ba
:1006b0003600f800809fbe00829fbe00849fbe006f
:1006c000869fbe00c068a9002000200063080700c4
:1006d0004f03be004f02be004f01be004f00be00e0
:1006e0003600f900004006003600f800809fbe008a
:1006f000829fbe00849fbe00869fbe00c088a90066
:1007000030002000550807004f03be004f02be0016
:100710004f01be004f00be003600f9000040060049
:100720003600f800809fbe00829fbe00849fbe00fe
:10073000869fbe00c608a900700020004708070079
:100740004f03be004f02be004f01be004f00be006f
:100750003600f900004006003600f800809fbe0019
:10076000829fbe00849fbe00869fbe00c508ab006e
:1007700003003200c508a900c000200037080700a8
:10078000c408e20003003d00c5e8a9008000200085
:1007900032080700c488ab0003003200c488a900f7
:1007a000a00020002d080700c408ab0003003200a1
:1007b000c408a900b000200028080700ffff370088
:1007c0003600f800809fbe00829fbe00849fbe005e
:1007d000869fbe003200f8003400f80010002000b0
:1007e000a00188001000200000d0fe0010618000f1
:1007f000918180000100e000010032000100010051
:100800000cc8a9003400f9003200f9004f03be0003
:100810004f02be004f01be004f00be003600f9007f
:10082000004006003600f800809fbe00829fbe0098
:10083000849fbe00869fbe003200f8003400f8009e
:1008400010002000a00188001000200000d0fe0051
:1008500090618000818180000100e0000100320091
:10086000010001000dc8a9003400f9003200f900b0
:100870004f03be004f02be004f01be004f00be003e
:100880003600f900004006003600f800809fbe00e8
:10089000829fbe00849fbe00869fbe003200f8008b
:1008a0003400f80010002000a00188001000200093
:1008b00000d0fe00a0618000718180000100e00096
:1008c00001003200010001000de8a9003400f90028
:1008d0003200f9004f03be004f02be004f01be00c0
:1008e0004f00be003600f900004006003600f80058
:1008f000809fbe00829fbe00849fbe00869fbe0078
:100900003200f8003400f80010002000a001880038
:100910001000200000d0fe00706080006181800027
:100920000100e00001003200010001000b88a90075
:100930003400f9003200f9004f03be004f02be0040
:100940004f01be004f00be003600f9000040060017
:0c0950000040da000000fe00000005007e
:020000040000fa
:10095c00f0818000ea0f50000b0036004010ab0015
:10096c0009003200208580000048a30006003200f8
:10097c00208580000038a30003003a004010a90035
:10098c003e30ef004030a8004030ab000c0032008d
:10099c008006210010017800100078005181800041
:1009ac00810051004400de00808f500002003100b5
:1009bc004030a9004050a80040838000508188003e
:1009cc004050ab000c003200800821001001780070
:1009dc001000780041818000810051004500de004c
:1009ec00808f5000020031004050a9004070a800d8
:1009fc0040848000408188004070ab0010003200c1
:100a0c00208580000058a3000d003a002081800052
:100a1c008000e80021818800813e2000810f500079
:100a2c00070036004070a9004090a800c00c2100bf
:100a3c0097060700a00b2100950607002430ef0055
:100a4c004090ab0012003200208180008000e80052
:100a5c002181880041062000810f50000c003600d7
:100a6c004090a90040b0a800400a21001020a1002d
:100a7c008108210091017800110178004411de00f9
:100a8c00610a2100828851002430ef0010a0a100df
:100a9c0040b0ab000200320040b0a90040d0a8002a
:100aac0040d0ab001100320031858000106720006f
:100abc00808f500009003e00308180008000e800eb
:100acc0031818800e50f500008003600600a2100d3
:100adc001008e8002630ef000400370020672000e3
:100aec003085880040d0a90040f0a8000000060026
:100afc00400a210010017800e10061008180400073
:100b0c00100178000210a100010871001082800011
:100b1c00e1006000818040000010a10000807000a6
:100b2c001082880021838000908480002003b10013
:100b3c00808f500003003100400a21001000a000fb
:100b4c000700370021838000908480002003b000d0
:100b5c00808f500002003600400a21001000a100d6
:100b6c00208580000048a3006200320020858000b0
:100b7c000038a3005f003a00208580000058a300d5
:100b8c005c003200208580000008a30010003200b9
:100b9c00218380008084800074005000808f50007e
:100bac000b0036004210ab0009003a002085800093
:100bbc000098a30002003a0031a3a8003183a800da
:100bcc00400a21001020a0004210a8004e0037005f
:100bdc00208580000008a30018003a0021838000c3
:100bec0080848000c003b000808f5000130036005a
:100bfc004210ab001100320031c3a90020858000e7
:100c0c000098a30006003a0040f0ab00020032004e
:100c1c0031a3a9000100370031a3a8003183a9003a
:100c2c004250a8001000200010858800400a2100c6
:100c3c001020a1004210a90033003700208580004d
:100c4c000008a30010003a002183800080848000fb
:100c5c0074004000808f50000b0031004210ab003c
:100c6c0009003a00208580000098a30002003a0099
:100c7c0031a3a8003183a800400a21001020a00055
:100c8c004210a80020003700208580000008a30037
:100c9c001d0032002183800080848000c003b100dd
:100cac00808f5000180031004210ab00160032004b
:100cbc0031c3a800208580000098a30006003a00ec
:100ccc0031a3a90040f0ab00020032003183a9002f
:100cdc00010037003183a8004250a800100020000a
:100cec0010858800400a21001020a1004210a900a4
:100cfc0005003700208580000098a30002003a0010
:100d0c0031a3a8003183a8000000060020858000d4
:100d1c000098a3001b003a004250ab0019003200af
:100d2c0040d0ab0002003a0040f0ab00150032009e
:100d3c0010858000e90f500011003e0020858000d6
:100d4c000008a3000300320031a3a8003183a900de
:100d5c00020037003183a80031a3a9001085800060
:100d6c004b00dd00701a8800c08580004e03e30044
:100d7c000400360040012000108588000100370077
:100d8c004250a90000000600800621009000780067
:100d9c001009b8004918dd004711de00020170008f
:100dac00c719de00000b2100020878005185800075
:100dbc00328380004411dd000111b8009285880057
:100dcc00a38588001000e0000700320082858000b7
:100ddc0094858000a58580000500090042aad800f2
:100dec004400de00b0858800b1858000603c2000a6
:100dfc00808f500001003600b0858800b2858000dd
:100e0c00830b2100c1072100a00b21006f050700f7
:100e1c002085800000b8a30022003a0030838000b7
:100e2c000000e0001f00320041848000b01f200051
:100e3c00808f50001b0036008208210012007800c1
:100e4c0031838000941a80006103b80001005300c4
:100e5c00e0805b008002eb00848bb9000402b800d8
:100e6c0085024300048088001580880012017800f8
:100e7c000500090042aad80040808800c185800086
:100e8c00010040005080880071142700810f500031
:100e9c0002003e00c0858800020037008014270045
:100eac00c0858800c08580000000d100a01a880091
:100ebc00208580000028a30004003a004250ab00bb
:100ecc0002003a00c0858000701a880000000600fd
:100edc00408480004300dd00a108210080087800d8
:100eec00308480004300dd0080087800328580006b
:100efc004311dd00800a21000208780010017800ff
:100f0c008081e800c00c21006d0507000000060080
:100f1c0050858000e90f500007003e0020858000be
:100f2c000098a30004003a0040f0ab00020032002d
:100f3c00400a21001080a000208580000088a300ba
:100f4c000e003200208580000018a3000b00320038
:100f5c00208580000008a30008003a00400a210008
:100f6c001080a1001090a00031a3a8003183a8002c
:100f7c00a10020005185880010a0a00020858000d1
:100f8c000098a30008003200208580000018a30000
:100f9c0005003200208580000008a30002003a0002
:100fac00e00921001008e80041848000406c20001a
:100fbc00808f500004003600400a210010b0a000c1
:100fcc000000eb000b003700428480004000200042
:100fdc00316a2000810f510006003e0042848000df
:100fec00100020001102b100810f510001003600e9
:100ffc0020002000f1848000810f50000600310099
:10100c00400a21001090a100e10921008008eb00aa
:10101c0010a0a10010b0a1000000060020858000e7
:10102c000098a3002c003a00208580000058a300f3
:10103c002900320040f0ab00270032004210ab0018
:10104c0025003a0031838000901a80000008b80017
:10105c0060808800718088004609dd004a00de004f
:10106c0000007100ca08de00e08088004384800024
:10107c00941a8000721a8000020152000219b80002
:10108c008280880093808800461add004a11de00b9
:10109c0002017200ca19de00f2808800800f510034
:1010ac0007003600208580000008a30002003200f3
:1010bc0031a3a800080037003183a80006003700d0
:1010cc00208580000008a3000200320031a3a90093
:1010dc00010037003183a9000000060031a3a800ed
:1010ec003183a8004e23ef00000000000000000038
:1010fc0000000000000000004030ef004010a8008d
:10110c003e30ef008000eb0031858800518588006f
:10111c00b1858800400a210010a0a00010b0a100e9
:10112c001030a0001020a0001050a1001070a100e1
:10113c004210a9004250a900018588001185880041
:10114c004430ef004630ef004930a90000000600a3
:10115c004430ec004210ab00010032004630ec0091
:10116c00400320004610e30001003600dbff0700bf
:10117c001082800063006000e10f50000a003a000a
:10118c00702520004410e30005003e0040d0ab0069
:10119c0002003a0040f0ab0001003200cfff070024
:1011ac004430ef004630ef0000000600e00621005e
:1011bc001008e800e40050001101be0034838000e8
:1011cc0002034200e08349008688be002102b00081
:1011dc001101be003484800002034200e083490008
:1011ec008688be00ea8050001101be00e4838000b6
:1011fc0002034200e08349008688be00f280400072
:10120c001101be008484800002034200e083490087
:10121c008688be0017002000908f13000600360051
:10122c00208580000018a30003003a002085800070
:10123c000008a30004003a0071838000c05d200008
:10124c00808f5000710036004090ab0002003200dd
:10125c00400a21001070a00072838000a3062100b8
:10126c001302be000201e9000500090042aad800e1
:10127c00000178000380e900020878008009eb0087
:10128c00b3117800ea0040008008eb00210d20002b
:10129c00908f100003003e0090ff07004810a8003c
:1012ac00010037004810a9004183800060472000ee
:1012bc00808f50000300360088ff07004830a800dc
:1012cc00010037004830a9007283800043092100d7
:1012dc001302be000201e9000500090042aad80071
:1012ec00000178000380e900020878008009eb0017
:1012fc00b311780001802000908f1000030036009d
:10130c00400a21001060a1000d003700918480007c
:10131c00005d2000808f500003003e00400a210039
:10132c001060a1000600370091848000906c2000b2
:10133c00808f500002003600400a21001060a0008f
:10134c0072838000c30821001302be000201e90071
:10135c000500090042aad800000178006480510001
:10136c00020878008009eb00b3117800a11f20005f
:10137c00908f100003003e0058ff07004850a80053
:10138c00010037004850a90041848000106f2000f4
:10139c00808f50000300360050ff07004870a800f3
:1013ac00010037004870a900e30621001301780002
:1013bc00748341001602be000201e9000500090019
:1013cc0042aad8000001780002848800000beb00d0
:1013dc003613780013037800868388008009eb00ad
:1013ec003e30ec004810e20003003a0020858000fb
:1013fc000048a30003003a00400a21001030a0006e
:10140c0002003700400a21001030a1000000060045
:10141c00889fbe004010a9004030a9004050a90090
:10142c004070a9004090a90040b0a90040d0a9008c
:10143c0040f0a900490a21001950a1001970a1001f
:10144c004210a9004250a9003e30ef000004eb000e
:10145c0008858800188588004430ef004630ef007e
:10146c00e90407001920a0001930a0001940a000c1
:10147c001990a10019a0a00019b0a100388588000e
:10148c0058858800b8858800e8848800d88488004e
:10149c004f04be000000060000000600000006001d
:1014ac000000060000000600000006000000060018
:1014bc00000006000000060000000600000ca8005a
:1014cc00011020000260800002806000fdff3200ed
:1014dc000a0ba80000000600002ca8000120200028
:1014ec000260800002806000fdff32000a2ba80021
:1014fc000000060000eca80001002800026080003b
:10150c0002806000fdff32000aeba800000006001c
:10151c00e0818800000006000b48ab00050032009b
:10152c00e08180000000e0000100320000000100ba
:10153c000b48a90000000600d081880000000600be
:10154c00304bab000500320080608000d181800000
:10155c000100e00001003200010001000000060063
:10156c00c08188000000060030abab0005003200e3
:10157c00b0608000c18180000100e00001003200f9
:10158c000100010000000600b08188000000060088
:10159c0030cbab0005003200c0608000b181800010
:1015ac000100e00001003200010001000000060013
:1015bc00a081880000000600310bab000500320052
:1015cc00e0608000a18180000100e0000100320099
:1015dc000100010000000600908188000000060058
:1015ec0080818800000006007081880000000600e1
:1015fc006081880000000600881f7800002bef0037
:10160c000006200010588800042bef00062bef007a
:10161c00082bef000a2bef000c2bef000e2bef002a
:10162c00102bef00122bef00142bef00208020006a
:10163c00005988008001200010598800382bef00d9
:10164c00402bef00482bef00502bef003a2bef0014
:10165c00422bef004a2bef00522bef003c2bef00fc
:10166c00442bef004c2bef00542bef003e2bef00e4
:10167c00462bef004e2bef00562bef0008402000be
:10168c00585b8800785b8800985b8800b85b8800a2
:10169c00a02bef00a42bef00a82bef00ac2bef003e
:1016ac00d02bef00d22bef00d42bef00d82bef0078
:1016bc0000302000b05e8800d05e8800f02bef0078
:1016cc00f22bef00022cef0020a5200090ff07006a
:1016dc0040a5200098ff070060a52000a0ff070090
:1016ec0080a52000a8ff0700a0a52000b0ff0700e0
:1016fc00c0a52000b8ff0700e0a52000b8ff070038
:10170c0000a62000b8ff070020a62000b8ff0700a5
:10171c000cc8a9002cc8a8000dc8a9002dc8a80089
:10172c000de8a9002de8a8000b88a9002b88a800bb
:10173c0000f02000022cb70001eba8006dff0700a1
:10174c0065ff0700085c880040002000105c8800e2
:10175c00285c8800305c8800405c8800585c8800fd
:10176c008c2bef008e2bef00902bef000010200045
:10177c00905c880010002000a05c88004f0478006a
:10178c0000000600881f780060142100904078004b
:10179c00904078008180fb000000e8001080fb0086
:1017ac0065004000808f5000120031008014210031
:1017bc00900078000081e9009281fb000202b100e8
:1017cc00028141001281fb000108690081c0b30055
:1017dc0013002a001008a300030032001001d100ee
:1017ec0003086900010037001008d1008140e900ae
:1017fc00f8ff3a0060142100904078008180fb00d3
:10180c000000e8001080fb0065004000808f500055
:10181c000d003a00721421009281fb008200e80056
:10182c00110278004822de00e0fd2f00010040008c
:10183c0083014000d44198001281fb009100780094
:10184c000200400061409800681421009880fb0061
:10185c0000fe2f000800400000804000104078007f
:10186c008e000700184ce800984078008180fb003f
:10187c000800e8001080fb0067004000808f5000db
:10188c0006003600080078000048eb000080e800f5
:10189c000008eb00a005b1001020a0004f04780058
:1018ac0000000600708780000028a3005d00320055
:1018bc00c0072100100178004811de00b112210090
:1018cc008248780090007800c0122100014878000e
:1018dc0000082100100178004811de00d11221000f
:1018ec008248780090007800e012210001487800ce
:1018fc0060062100100178004811de00f112210071
:10190c00824878009000780000132100014878008c
:10191c0080062100100178004811de00111321000f
:10192c00824878009000780020132100014878004c
:10193c0000072100100178004811de00311321004e
:10194c00824878009000780040132100014878000c
:10195c00408280004801de0051132100824878004b
:10196c008100e8008048780080092100100178008f
:10197c004811de008100e800824878009000780071
:10198c0080132100014878008008210010017800a4
:10199c004811de00911321008248780090007800f5
:1019ac00a01321000148780001828000c808de00e5
:1019bc000000e80001487800018280000000e80087
:1019cc0001487800400a2100100178004811de001f
:1019dc00d11321008248780090007800e013210098
:1019ec0001487800108280004801de00f1132100cc
:1019fc00824878008100e8008048780020092100a6
:101a0c00100178004811de008100e800824878005f
:101a1c009000780020142100014878004005b100a6
:101a2c001020a1000000060000082000c011880052
:101a3c003a22ef003c22ef0020022000f011880037
:101a4c00b0a22000001288004222ef004c22ef00ce
:101a5c004e22ef005022ef005222ef005422ef00f2
:101a6c005622ef005822ef005a22ef005c22ef00c2
:101a7c0039e2a80038a2a8003882a80000000600ad
:101a8c003e22ab00feff3a003c22ab0001003200cc
:101a9c003c22a90020128000000006003e82ab0010
:101aac00feff3a000080fb00401288000000060098
:101abc00f01180000010a20011800a00000000004c
:101acc00000006000000eb003e82ab0004003a0070
:101adc00000220003802b6000000ea004f00de00d1
:101aec000000060077a00a003c020000000006007f
:101afc00f0118000e21180008000eb00c000dd00de
:101b0c00000020008001eb00020070008380700058
:101b1c000000060039e2a80038a2a8003882a8000c
:101b2c000000060039e2a90038a2a9003882a900f9
:101b3c000000060051c5b300601221000148780076
:101b4c008040eb000000e8000148780012c0b300b0
:101b5c000000e800024878007f00400082c1b3001a
:101b6c00024878007e01500001497800fd005000c9
:101b7c00904878001080fb0065004000e50f500095
:101b8c000c00360050c0b30064825000fd81400050
:101b9c008080fb0081004200804878000040e80013
:101bac000081fb009380fb00e5804000810f510019
:101bbc00f7ff39000001eb00428a88007114210004
:101bcc009181fb00e5814100f0fd2f0001004000f8
:101bdc0083014000824978009181fb00e68141003d
:101bec0083014000824978009180fb000100400095
:101bfc00d1c0b3007140980000000600e487470094
:101c0c00889fbe008a9fbe008c9fbe008e1f7800ee
:101c1c00ac010700cc010700dc020700fcfd07004b
:101c2c00c4ff07004010a8008006eb000d077800e9
:101c3c008dbf9f000d0578000d0478008d04780091
:101c4c004c0a21000b4020000804e8000080eb0047
:101c5c008080eb0000004400e0804800e90f500059
:101c6c00e08f580045003e000006010009003700d7
:101c7c000a0037000f0037001d0037002100370025
:101c8c00280037003500370043003700420037008a
:101c9c003c00370003ff07003f0037000a05e8004f
:101cac00e20f55003c003600b6fe07000005eb00c5
:101cbc00390037008904e800401f2000808f540051
:101ccc0035003600eea00a00220e00000004a2002f
:101cdc00610060004e00dd001171800001e0a10088
:101cec0081007000117188008004eb002a0037001d
:101cfc00418280000180650027003a0014fb070038
:101d0c0025003700428280000280650022003200ec
:101d1c000e07e80020032000800f57001b003e0038
:101d2c001d0037001c78a3001b0032000fb8970071
:101d3c00e30f500003003e000000e80080bf9f004e
:101d4c0015003700230ea8001c50a0001c70a10029
:101d5c008000eb0081bf9f000f00370040828000a5
:101d6c006f0060000c0032008d06e800a00f200010
:101d7c00808f560007003e0007003700000000006f
:101d8c00050037000004eb00030037000007eb00f0
:101d9c00010037008006eb000108200002408000a3
:101dac0002806000fdff320000e8a900a6ff3700aa
:101dbc0030002000001888000223ef000423ef00fd
:101dcc000623ef000823ef000001200050188800c4
:101ddc000c23ef000e23ef001023ef001223ef0073
:101dec001423ef001623ef001823ef001a23ef0043
:101dfc001c23ef001e23ef002023ef002223ef0013
:101e0c002423ef002623ef002823ef006223ef00aa
:101e1c006423ef006623ef0080002000401b880045
:101e2c0010102000501b88006c23ef006e23ef0075
:101e3c007023ef007223ef007423ef007623ef0082
:101e4c007823ef007a23ef007c23ef007e23ef0052
:101e5c008023ef008223ef008423ef008623ef0022
:101e6c00a0a02100401c88008a23ef008c23ef00e7
:101e7c008e23ef009023ef009223ef00ea0107007e
:101e8c000004e000fdff320080002800001b8800e9
:101e9c0000000600000006000888ab0002003200bb
:101eac00fcff07000888a9000000060000000600df
:101ebc001528ab0002003200fcff07001528a90012
:101ecc0000000600000006001548ab0002003200be
:101edc00fcff07001548a9000000060000000600e2
:101eec001568ab0002003200fcff07001568a90062
:101efc0000000600000006001588ab00020032004e
:101f0c00fcff07001588a900000006000000060071
:101f1c0015a8ab0002003200fcff070015a8a900b1
:101f2c00000006000000060015c8ab0002003200dd
:101f3c00fcff070015c8a900000006005029ef009f
:101f4c005229ef005429ef005629ef005a29ef00cf
:101f5c005c29ef006029ef006229ef00007122007c
:101f6c00204b88006629ef006829ef006c29ef00f0
:101f7c007029ef007229ef0051e9a80000c8a900f0
:101f8c0000e8a900000006000040eb00a1162100ab
:101f9c00804878008100e800804878008100e800e3
:101fac008048780051e9a8000000060051e9a9001a
:101fbc00000006000000060000e8ab00050032003f
:101fcc00fcff070011c0b300a016210001487800e7
:101fdc0000e8a900000006000000060000c8ab00e5
:101fec0005003200fcff070011c0b300b016210041
:101ffc000148780000c8a90000000600204b8800aa
:10200c00a01621000048eb0000000600304b8800b1
:10201c00b01621000048eb0000000600204b8000a9
:10202c0000000600304b800000000600204b8800aa
:10203c00a01621000048eb0000000600304b880081
:10204c00b01621000048eb0000000600004b800099
:10205c0000000600104b800000000600a0162100b6
:10206c00104078000004e00002003200a1162100ac
:10207c008048eb0000000600b016210010407800ec
:10208c000004e00002003200b11621008048eb0091
:10209c000000060077a00a00880c00000000060073
:1020ac0081eca8000000060081eca90000000600ed
:1020bc00fdff070000082000006488005005200088
:1020cc0020648800a0082000306488008a2cef006f
:1020dc000021280040648800922cef00902cef0027
:1020ec00942cef008c2cef008e2cef00ecff0700f3
:1020fc0000000600670060004300dd0071fc2f004b
:10210c00426480008280600081007000416488001d
:10211c0000000600706488000000060060648800ff
:10212c0000000600892ca80000000600892ca900dc
:10213c000000060030200a00900c00000000060091
:10214c006f0060004800dd00f10f2f0082648000fa
:10215c0082806000810070008164880000000600ad
:10216c006f0060004400dd00f1f02f0082648000fd
:10217c00828060008100700081648800000006008d
:10218c004c00dd00f1ff2000826480008280600042
:10219c0081007000816488000000060000000600c9
:1021ac0009a8ab0002003200fcff070009a8a90037
:1021bc00000006004f00de000000060001002400b5
:1021cc00010060000000ea004f00de000000060085
:1021dc0099800a00000000000000060077800a00c9
:1021ec00000000000000060066800a0000000000ed
:1021fc000000060044800a000000000000000600f9
:10220c000080ea00800fb600007c88000000060009
:10221c00007c800000000600881f7800fcff07008f
:10222c000004780008007800e2ff07000004e000da
:10223c000200320000002800f1ff070008007800bf
:10224c00deff07000004e000020032000000240062
:10225c00ebff070008007800ddff07000004e0003a
:10226c000200320000202000e5ff07000800780083
:10227c00daff07000004e000020032000008200032
:10228c00dfff070008007800d7ff07000004e0001c
:10229c000200320000042000d9ff0700080078007b
:1022ac00d4ff07000004e00002003200000120000f
:1022bc00d3ff07004f04780000000600802fef00ca
:1022cc0000000600881f7800a00b2100a10421004b
:1022dc000108780088052100e8858800610022004b
:1022ec00f185880001002200018688008000eb0047
:1022fc0011868800a2c8270032868800d2ff2f00e2
:10230c002286880041868800811427005186880027
:10231c004e30ef005e000700b0cc200050828800e9
:10232c00603a200060828800c0ff2700000c780013
:10233c00804c2000d0828800c04c2800e0828800ad
:10234c004f04780000000600881f7800c00c2100a4
:10235c002105210001087800e80521007886880015
:10236c000101220081868800a1002200918688004c
:10237c008080eb00a18688008000eb00c18688007d
:10238c0022002000b2868800d186880001532700e5
:10239c00e18688005030ef003d0007000057260012
:1023ac0090828800f0a82d00a0828800a0722400e2
:1023bc00000c7800b00a20000083880020982b00c5
:1023cc00108388004f04780000000600841f7800fa
:1023dc00851f7800881f78008a1f78004400f80059
:1023ec00040a20002402880030059000400490006c
:1023fc009a029000250598008a0290001505980015
:10240c0091025100882add00050d7800100490001f
:10241c004604c3004604c0000204c0001201c00000
:10242c0000049000200590004604c7000204c00080
:10243c001201c0000400cd00e00290001301c000a6
:10244c00d00290000500c8000400cd00faba970035
:10245c00050d780074bd9f00f00290001520e60079
:10246c0005027800800a900015a0e60005027800ad
:10247c00840978004400f9004f0578004f04780077
:10248c00cf0278004f0278000080fe0000000600aa
:10249c00801f7800200090000018eb000008eb0073
:1024ac004f007800801f7800300090000018eb007f
:1024bc000018eb000008eb004f007800000006004d
:1024cc00841f7800851f7800881f78008a1f780089
:1024dc004400f800040e200024028800300590000f
:1024ec009a029000250598008a0290001505980024
:1024fc0091025100050d7800100490004684c30031
:10250c004684c0000284c0001281c000d00290003a
:10251c000580c80000049000200590004604c3000c
:10252c000204c0001201c000400490000800c80062
:10253c000000cb000400cd00faba9700050d78001e
:10254c0074bd9f00f00290001520e6000502780093
:10255c00800a900015a0e600050278008409780036
:10256c004400f9004f0578004f047800cf02780042
:10257c004f0278000080fe000000060010002300cf
:10258c00307c8800810c2000417c88008c2fef006f
:10259c0010042000507c880012102800727c8800e7
:1025ac00817c8800907c8800b82fef00ba2fef0058
:1025bc00be2fef00002def00a02fef00a42fef0097
:1025cc00a62fef00a82fef00aa2fef00ae2fef00e1
:1025dc00b02fef00b22fef0010002000a209200056
:1025ec008107200053f82000814978008249780047
:1025fc0080497800720520006104200043f8200017
:10260c00814978008249780080497800840fab00ba
:10261c00feff3a0001022000227c80000280600054
:10262c00fdff320000000600eea00a008e0f000035
:04263c000000060094
:020000040000fa
:102640000020000014000000800000004a1000007c
:102650000400000080000000581000000c00000082
:10266000800000004e100000040000008000000008
:102670005210000004000000800000004a11000019
:102680002000000080000000561000000200000042
:1026900082000000ffff00006a110000040000003b
:1026a000800000002c1000001200000080000000dc
:1026b000ee1000005c0000008000000064100000cc
:1026c0008a000000800000003e1000000c000000a6
:1026d00080000000001000002c00000080000000be
:0426e00000000000f6
:020000040000fa
:1026e400062eef00222eef0010012000107088004b
:1026f400f06f2a00f07088000c2eef00282eef00f7
:102704000a2eef00262eef00082eef00242eef00f5
:102714009001200000708800f0292000e0708800fb
:102724000000eb0051052000b1468800a10a2000fa
:10273400b146880000688800f00f2c008a0db600ae
:102744000080a000506c8800a0c2b30028edb70040
:102754000080200051052000b1468800a10a200015
:10276400b14688000068880000000600210f2000a0
:102774002202800082806000808070002102880034
:1027840000000600c3e8a8000000000000000000ec
:1027940000000600d2ff07000a00070079ff0700c7
:1027a400e8fd070044fe0700a1fc070094fb0700b6
:1027b40081fd0700f3ff070000022000ebff070084
:1027c40000000600f08f2f0092438000820060001a
:1027d4000180a00091438800f1ff2800b2438000eb
:1027e4008280600001c0a000b143880081ff2f00f7
:1027f40072438000828060000100a0007143880061
:102804007608b6000080a000b043880000000600ef
:102814004810a8004830a8004850a8004870a800f4
:102824004890a90048b0a90048d0a90048f0a900e0
:102834004910a9004930a9004950a90010002000fe
:1028440000000600a01421008007780078004000f2
:102854000001880000000600b0828800ffff3700f6
:020000040000fa
:04be0000ffffff0041
:020000040000fa
:04be2000ffffff0021
:020000040000fa
:04be300078ffff0098
:020000040000fa
:04be38003bffff00cd
:020000040000fa
:04be40007f7fff0001
:020000040000fa
:04be4800ffffff00f9
:020000040000fa
:04be5000ddffff0013
:020000040000fa
:04be58000000ff00e7
:020000040000fa
:04be60000000ff00df
:020000040000fa
:04be68000000ff00d7
:020000040000fa
:04be70000000ff00cf
:020000040000fa
:04be7800ffffff00c9
:020000040000fa
:04be8000fffcff00c4
:020000040000fa
:04be8800ffffff00b9
:00000001FF
